{
  "_format": "hh-sol-artifact-1",
  "contractName": "PredictionMarket",
  "sourceName": "contracts/PredictionMarket.sol",
  "abi": [
    {
      "inputs": [
        {
          "internalType": "string",
          "name": "_question",
          "type": "string"
        },
        {
          "internalType": "uint256",
          "name": "_duration",
          "type": "uint256"
        },
        {
          "internalType": "bool",
          "name": "_isDemo",
          "type": "bool"
        }
      ],
      "stateMutability": "nonpayable",
      "type": "constructor"
    },
    {
      "anonymous": false,
      "inputs": [
        {
          "indexed": true,
          "internalType": "address",
          "name": "user",
          "type": "address"
        },
        {
          "indexed": false,
          "internalType": "bool",
          "name": "outcome",
          "type": "bool"
        },
        {
          "indexed": false,
          "internalType": "uint256",
          "name": "amount",
          "type": "uint256"
        }
      ],
      "name": "BetPlaced",
      "type": "event"
    },
    {
      "anonymous": false,
      "inputs": [
        {
          "indexed": false,
          "internalType": "bool",
          "name": "outcome",
          "type": "bool"
        }
      ],
      "name": "MarketResolved",
      "type": "event"
    },
    {
      "anonymous": false,
      "inputs": [
        {
          "indexed": true,
          "internalType": "address",
          "name": "user",
          "type": "address"
        },
        {
          "indexed": false,
          "internalType": "uint256",
          "name": "amount",
          "type": "uint256"
        }
      ],
      "name": "WinningsClaimed",
      "type": "event"
    },
    {
      "inputs": [],
      "name": "autoResolve",
      "outputs": [],
      "stateMutability": "nonpayable",
      "type": "function"
    },
    {
      "inputs": [
        {
          "internalType": "address",
          "name": "",
          "type": "address"
        }
      ],
      "name": "bets",
      "outputs": [
        {
          "internalType": "uint256",
          "name": "yesAmount",
          "type": "uint256"
        },
        {
          "internalType": "uint256",
          "name": "noAmount",
          "type": "uint256"
        },
        {
          "internalType": "bool",
          "name": "claimed",
          "type": "bool"
        }
      ],
      "stateMutability": "view",
      "type": "function"
    },
    {
      "inputs": [],
      "name": "claimWinnings",
      "outputs": [],
      "stateMutability": "nonpayable",
      "type": "function"
    },
    {
      "inputs": [],
      "name": "getPools",
      "outputs": [
        {
          "internalType": "uint256",
          "name": "yesPool",
          "type": "uint256"
        },
        {
          "internalType": "uint256",
          "name": "noPool",
          "type": "uint256"
        }
      ],
      "stateMutability": "view",
      "type": "function"
    },
    {
      "inputs": [],
      "name": "getResolutionDelay",
      "outputs": [
        {
          "internalType": "uint256",
          "name": "",
          "type": "uint256"
        }
      ],
      "stateMutability": "view",
      "type": "function"
    },
    {
      "inputs": [],
      "name": "isDemoMode",
      "outputs": [
        {
          "internalType": "bool",
          "name": "",
          "type": "bool"
        }
      ],
      "stateMutability": "view",
      "type": "function"
    },
    {
      "inputs": [],
      "name": "isResolvable",
      "outputs": [
        {
          "internalType": "bool",
          "name": "",
          "type": "bool"
        }
      ],
      "stateMutability": "view",
      "type": "function"
    },
    {
      "inputs": [],
      "name": "market",
      "outputs": [
        {
          "internalType": "string",
          "name": "question",
          "type": "string"
        },
        {
          "internalType": "uint256",
          "name": "endTime",
          "type": "uint256"
        },
        {
          "internalType": "uint256",
          "name": "totalYesPool",
          "type": "uint256"
        },
        {
          "internalType": "uint256",
          "name": "totalNoPool",
          "type": "uint256"
        },
        {
          "internalType": "bool",
          "name": "resolved",
          "type": "bool"
        },
        {
          "internalType": "bool",
          "name": "outcome",
          "type": "bool"
        }
      ],
      "stateMutability": "view",
      "type": "function"
    },
    {
      "inputs": [],
      "name": "owner",
      "outputs": [
        {
          "internalType": "address",
          "name": "",
          "type": "address"
        }
      ],
      "stateMutability": "view",
      "type": "function"
    },
    {
      "inputs": [
        {
          "internalType": "bool",
          "name": "_isYes",
          "type": "bool"
        }
      ],
      "name": "placeBet",
      "outputs": [],
      "stateMutability": "payable",
      "type": "function"
    },
    {
      "inputs": [
        {
          "internalType": "bool",
          "name": "_outcome",
          "type": "bool"
        }
      ],
      "name": "resolveMarket",
      "outputs": [],
      "stateMutability": "nonpayable",
      "type": "function"
    }
  ],
  "bytecode": "0x60806040523480156200001157600080fd5b5060405162001cfc38038062001cfc8339818101604052810190620000379190620002d0565b336000806101000a81548173ffffffffffffffffffffffffffffffffffffffff021916908373ffffffffffffffffffffffffffffffffffffffff16021790555082600160000190816200008b91906200058c565b5081426200009a9190620006a2565b600180018190555080600660006101000a81548160ff021916908315150217905550505050620006dd565b6000604051905090565b600080fd5b600080fd5b600080fd5b600080fd5b6000601f19601f8301169050919050565b7f4e487b7100000000000000000000000000000000000000000000000000000000600052604160045260246000fd5b6200012e82620000e3565b810181811067ffffffffffffffff8211171562000150576200014f620000f4565b5b80604052505050565b600062000165620000c5565b905062000173828262000123565b919050565b600067ffffffffffffffff821115620001965762000195620000f4565b5b620001a182620000e3565b9050602081019050919050565b60005b83811015620001ce578082015181840152602081019050620001b1565b60008484015250505050565b6000620001f1620001eb8462000178565b62000159565b90508281526020810184848401111562000210576200020f620000de565b5b6200021d848285620001ae565b509392505050565b600082601f8301126200023d576200023c620000d9565b5b81516200024f848260208601620001da565b91505092915050565b6000819050919050565b6200026d8162000258565b81146200027957600080fd5b50565b6000815190506200028d8162000262565b92915050565b60008115159050919050565b620002aa8162000293565b8114620002b657600080fd5b50565b600081519050620002ca816200029f565b92915050565b600080600060608486031215620002ec57620002eb620000cf565b5b600084015167ffffffffffffffff8111156200030d576200030c620000d4565b5b6200031b8682870162000225565b93505060206200032e868287016200027c565b92505060406200034186828701620002b9565b9150509250925092565b600081519050919050565b7f4e487b7100000000000000000000000000000000000000000000000000000000600052602260045260246000fd5b600060028204905060018216806200039e57607f821691505b602082108103620003b457620003b362000356565b5b50919050565b60008190508160005260206000209050919050565b60006020601f8301049050919050565b600082821b905092915050565b6000600883026200041e7fffffffffffffffffffffffffffffffffffffffffffffffffffffffffffffffff82620003df565b6200042a8683620003df565b95508019841693508086168417925050509392505050565b6000819050919050565b60006200046d62000467620004618462000258565b62000442565b62000258565b9050919050565b6000819050919050565b62000489836200044c565b620004a1620004988262000474565b848454620003ec565b825550505050565b600090565b620004b8620004a9565b620004c58184846200047e565b505050565b5b81811015620004ed57620004e1600082620004ae565b600181019050620004cb565b5050565b601f8211156200053c576200050681620003ba565b6200051184620003cf565b8101602085101562000521578190505b620005396200053085620003cf565b830182620004ca565b50505b505050565b600082821c905092915050565b6000620005616000198460080262000541565b1980831691505092915050565b60006200057c83836200054e565b9150826002028217905092915050565b62000597826200034b565b67ffffffffffffffff811115620005b357620005b2620000f4565b5b620005bf825462000385565b620005cc828285620004f1565b600060209050601f831160018114620006045760008415620005ef578287015190505b620005fb85826200056e565b8655506200066b565b601f1984166200061486620003ba565b60005b828110156200063e5784890151825560018201915060208501945060208101905062000617565b868310156200065e57848901516200065a601f8916826200054e565b8355505b6001600288020188555050505b505050505050565b7f4e487b7100000000000000000000000000000000000000000000000000000000600052601160045260246000fd5b6000620006af8262000258565b9150620006bc8362000258565b9250828201905080821115620006d757620006d662000673565b5b92915050565b61160f80620006ed6000396000f3fe60806040526004361061009c5760003560e01c806380f556051161006457806380f556051461016a5780638969e3411461019a57806389a78f1a146101b15780638da5cb5b146101f0578063b401faf11461021b578063c390bd30146102325761009c565b8063096a3778146100a1578063248a7789146100bd578063673a2a1f146100e8578063697655581461011457806370aa26871461013f575b600080fd5b6100bb60048036038101906100b69190610c25565b61025b565b005b3480156100c957600080fd5b506100d2610480565b6040516100df9190610c61565b60405180910390f35b3480156100f457600080fd5b506100fd6104bd565b60405161010b929190610c95565b60405180910390f35b34801561012057600080fd5b506101296104d4565b6040516101369190610c61565b60405180910390f35b34801561014b57600080fd5b506101546104e7565b6040516101619190610cbe565b60405180910390f35b34801561017657600080fd5b5061017f610511565b60405161019196959493929190610d69565b60405180910390f35b3480156101a657600080fd5b506101af6105dd565b005b3480156101bd57600080fd5b506101d860048036038101906101d39190610e2f565b610725565b6040516101e793929190610e5c565b60405180910390f35b3480156101fc57600080fd5b5061020561075c565b6040516102129190610ea2565b60405180910390f35b34801561022757600080fd5b50610230610780565b005b34801561023e57600080fd5b5061025960048036038101906102549190610c25565b610a9f565b005b600160040160009054906101000a900460ff16156102ae576040517f08c379a00000000000000000000000000000000000000000000000000000000081526004016102a590610f09565b60405180910390fd5b600180015442106102f4576040517f08c379a00000000000000000000000000000000000000000000000000000000081526004016102eb90610f75565b60405180910390fd5b60003411610337576040517f08c379a000000000000000000000000000000000000000000000000000000000815260040161032e90610fe1565b60405180910390fd5b80156103b75734600760003373ffffffffffffffffffffffffffffffffffffffff1673ffffffffffffffffffffffffffffffffffffffff168152602001908152602001600020600001600082825461038f9190611030565b9250508190555034600160020160008282546103ab9190611030565b9250508190555061042d565b34600760003373ffffffffffffffffffffffffffffffffffffffff1673ffffffffffffffffffffffffffffffffffffffff16815260200190815260200160002060010160008282546104099190611030565b9250508190555034600160030160008282546104259190611030565b925050819055505b3373ffffffffffffffffffffffffffffffffffffffff167fe57fa5a543ebcdebf2a7d7102ac913e14454cec006468e43a6916e95bdfcea9e8234604051610475929190611064565b60405180910390a250565b6000600160040160009054906101000a900460ff161580156104b857506104a56104e7565b60018001546104b49190611030565b4210155b905090565b600080600160020154600160030154915091509091565b600660009054906101000a900460ff1681565b6000600660009054906101000a900460ff166105055761012c610508565b60005b61ffff16905090565b6001806000018054610522906110bc565b80601f016020809104026020016040519081016040528092919081815260200182805461054e906110bc565b801561059b5780601f106105705761010080835404028352916020019161059b565b820191906000526020600020905b81548152906001019060200180831161057e57829003601f168201915b5050505050908060010154908060020154908060030154908060040160009054906101000a900460ff16908060040160019054906101000a900460ff16905086565b600660009054906101000a900460ff1661062c576040517f08c379a000000000000000000000000000000000000000000000000000000000815260040161062390611139565b60405180910390fd5b610634610480565b610673576040517f08c379a000000000000000000000000000000000000000000000000000000000815260040161066a906111a5565b60405180910390fd5b6000806002424460405160200161068b9291906111e6565b6040516020818303038152906040528051906020012060001c6106ae9190611241565b14905060018060040160006101000a81548160ff02191690831515021790555080600160040160016101000a81548160ff0219169083151502179055507ff528f3b02f5c2503827fc677c9d0cb54ffbf11ed32cb659f73243b70dea7cf0e8160405161071a9190610c61565b60405180910390a150565b60076020528060005260406000206000915090508060000154908060010154908060020160009054906101000a900460ff16905083565b60008054906101000a900473ffffffffffffffffffffffffffffffffffffffff1681565b600160040160009054906101000a900460ff166107d2576040517f08c379a00000000000000000000000000000000000000000000000000000000081526004016107c9906112be565b60405180910390fd5b6000600760003373ffffffffffffffffffffffffffffffffffffffff1673ffffffffffffffffffffffffffffffffffffffff16815260200190815260200160002090508060020160009054906101000a900460ff1615610867576040517f08c379a000000000000000000000000000000000000000000000000000000000815260040161085e9061132a565b60405180910390fd5b6000600160040160019054906101000a900460ff16156109045760008260000154116108c8576040517f08c379a00000000000000000000000000000000000000000000000000000000081526004016108bf90611396565b60405180910390fd5b6001600201546001600301546001600201546108e49190611030565b83600001546108f391906113b6565b6108fd91906113f8565b9050610983565b600082600101541161094b576040517f08c379a000000000000000000000000000000000000000000000000000000000815260040161094290611396565b60405180910390fd5b6001600301546001600301546001600201546109679190611030565b836001015461097691906113b6565b61098091906113f8565b90505b60018260020160006101000a81548160ff02191690831515021790555060003373ffffffffffffffffffffffffffffffffffffffff16826040516109c69061145a565b60006040518083038185875af1925050503d8060008114610a03576040519150601f19603f3d011682016040523d82523d6000602084013e610a08565b606091505b5050905080610a4c576040517f08c379a0000000000000000000000000000000000000000000000000000000008152600401610a43906114bb565b60405180910390fd5b3373ffffffffffffffffffffffffffffffffffffffff167f1a31e733a172afcf46074b3106c17f0c298e226442682a03c1e99ce256139ec283604051610a929190610cbe565b60405180910390a2505050565b60008054906101000a900473ffffffffffffffffffffffffffffffffffffffff1673ffffffffffffffffffffffffffffffffffffffff163373ffffffffffffffffffffffffffffffffffffffff1614610b2d576040517f08c379a0000000000000000000000000000000000000000000000000000000008152600401610b2490611527565b60405180910390fd5b610b35610480565b610b74576040517f08c379a0000000000000000000000000000000000000000000000000000000008152600401610b6b906115b9565b60405180910390fd5b60018060040160006101000a81548160ff02191690831515021790555080600160040160016101000a81548160ff0219169083151502179055507ff528f3b02f5c2503827fc677c9d0cb54ffbf11ed32cb659f73243b70dea7cf0e81604051610bdd9190610c61565b60405180910390a150565b600080fd5b60008115159050919050565b610c0281610bed565b8114610c0d57600080fd5b50565b600081359050610c1f81610bf9565b92915050565b600060208284031215610c3b57610c3a610be8565b5b6000610c4984828501610c10565b91505092915050565b610c5b81610bed565b82525050565b6000602082019050610c766000830184610c52565b92915050565b6000819050919050565b610c8f81610c7c565b82525050565b6000604082019050610caa6000830185610c86565b610cb76020830184610c86565b9392505050565b6000602082019050610cd36000830184610c86565b92915050565b600081519050919050565b600082825260208201905092915050565b60005b83811015610d13578082015181840152602081019050610cf8565b60008484015250505050565b6000601f19601f8301169050919050565b6000610d3b82610cd9565b610d458185610ce4565b9350610d55818560208601610cf5565b610d5e81610d1f565b840191505092915050565b600060c0820190508181036000830152610d838189610d30565b9050610d926020830188610c86565b610d9f6040830187610c86565b610dac6060830186610c86565b610db96080830185610c52565b610dc660a0830184610c52565b979650505050505050565b600073ffffffffffffffffffffffffffffffffffffffff82169050919050565b6000610dfc82610dd1565b9050919050565b610e0c81610df1565b8114610e1757600080fd5b50565b600081359050610e2981610e03565b92915050565b600060208284031215610e4557610e44610be8565b5b6000610e5384828501610e1a565b91505092915050565b6000606082019050610e716000830186610c86565b610e7e6020830185610c86565b610e8b6040830184610c52565b949350505050565b610e9c81610df1565b82525050565b6000602082019050610eb76000830184610e93565b92915050565b7f4d61726b657420616c7265616479207265736f6c766564000000000000000000600082015250565b6000610ef3601783610ce4565b9150610efe82610ebd565b602082019050919050565b60006020820190508181036000830152610f2281610ee6565b9050919050565b7f4d61726b65742062657474696e6720656e646564000000000000000000000000600082015250565b6000610f5f601483610ce4565b9150610f6a82610f29565b602082019050919050565b60006020820190508181036000830152610f8e81610f52565b9050919050565b7f42657420616d6f756e74206d757374206265203e203000000000000000000000600082015250565b6000610fcb601683610ce4565b9150610fd682610f95565b602082019050919050565b60006020820190508181036000830152610ffa81610fbe565b9050919050565b7f4e487b7100000000000000000000000000000000000000000000000000000000600052601160045260246000fd5b600061103b82610c7c565b915061104683610c7c565b925082820190508082111561105e5761105d611001565b5b92915050565b60006040820190506110796000830185610c52565b6110866020830184610c86565b9392505050565b7f4e487b7100000000000000000000000000000000000000000000000000000000600052602260045260246000fd5b600060028204905060018216806110d457607f821691505b6020821081036110e7576110e661108d565b5b50919050565b7f4175746f2d7265736f6c7665206f6e6c7920696e2064656d6f206d6f64650000600082015250565b6000611123601e83610ce4565b915061112e826110ed565b602082019050919050565b6000602082019050818103600083015261115281611116565b9050919050565b7f42657474696e6720706572696f64207374696c6c206163746976650000000000600082015250565b600061118f601b83610ce4565b915061119a82611159565b602082019050919050565b600060208201905081810360008301526111be81611182565b9050919050565b6000819050919050565b6111e06111db82610c7c565b6111c5565b82525050565b60006111f282856111cf565b60208201915061120282846111cf565b6020820191508190509392505050565b7f4e487b7100000000000000000000000000000000000000000000000000000000600052601260045260246000fd5b600061124c82610c7c565b915061125783610c7c565b92508261126757611266611212565b5b828206905092915050565b7f4d61726b6574206e6f74207265736f6c76656400000000000000000000000000600082015250565b60006112a8601383610ce4565b91506112b382611272565b602082019050919050565b600060208201905081810360008301526112d78161129b565b9050919050565b7f416c726561647920636c61696d65640000000000000000000000000000000000600082015250565b6000611314600f83610ce4565b915061131f826112de565b602082019050919050565b6000602082019050818103600083015261134381611307565b9050919050565b7f4e6f2077696e6e696e6720626574000000000000000000000000000000000000600082015250565b6000611380600e83610ce4565b915061138b8261134a565b602082019050919050565b600060208201905081810360008301526113af81611373565b9050919050565b60006113c182610c7c565b91506113cc83610c7c565b92508282026113da81610c7c565b915082820484148315176113f1576113f0611001565b5b5092915050565b600061140382610c7c565b915061140e83610c7c565b92508261141e5761141d611212565b5b828204905092915050565b600081905092915050565b50565b6000611444600083611429565b915061144f82611434565b600082019050919050565b600061146582611437565b9150819050919050565b7f5472616e73666572206661696c65640000000000000000000000000000000000600082015250565b60006114a5600f83610ce4565b91506114b08261146f565b602082019050919050565b600060208201905081810360008301526114d481611498565b9050919050565b7f4f6e6c79206f776e65722063616e2063616c6c00000000000000000000000000600082015250565b6000611511601383610ce4565b915061151c826114db565b602082019050919050565b6000602082019050818103600083015261154081611504565b9050919050565b7f5265736f6c7574696f6e20636f6e646974696f6e73206e6f74206d657420286360008201527f6865636b2064656c617929000000000000000000000000000000000000000000602082015250565b60006115a3602b83610ce4565b91506115ae82611547565b604082019050919050565b600060208201905081810360008301526115d281611596565b905091905056fea264697066735822122082c32aa623bc324288f60b81cddc19d16c8e47b5c6e5fe4fa33b974a88b0c79664736f6c63430008140033",
  "linkReferences": {},
  "deployedLinkReferences": {}
}