{
  "_format": "hh-sol-artifact-1",
  "contractName": "Treasury",
  "sourceName": "contracts/Treasury.sol",
  "abi": [
    {
      "inputs": [],
      "stateMutability": "nonpayable",
      "type": "constructor"
    },
    {
      "anonymous": false,
      "inputs": [
        {
          "indexed": true,
          "internalType": "address",
          "name": "user",
          "type": "address"
        },
        {
          "indexed": false,
          "internalType": "uint256",
          "name": "amount",
          "type": "uint256"
        }
      ],
      "name": "Withdrawal",
      "type": "event"
    },
    {
      "stateMutability": "payable",
      "type": "fallback"
    },
    {
      "inputs": [],
      "name": "owner",
      "outputs": [
        {
          "internalType": "address",
          "name": "",
          "type": "address"
        }
      ],
      "stateMutability": "view",
      "type": "function"
    },
    {
      "inputs": [
        {
          "internalType": "address payable",
          "name": "user",
          "type": "address"
        },
        {
          "internalType": "uint256",
          "name": "amount",
          "type": "uint256"
        }
      ],
      "name": "withdrawTo",
      "outputs": [],
      "stateMutability": "nonpayable",
      "type": "function"
    },
    {
      "stateMutability": "payable",
      "type": "receive"
    }
  ],
  "bytecode": "0x608060405234801561001057600080fd5b50336000806101000a81548173ffffffffffffffffffffffffffffffffffffffff021916908373ffffffffffffffffffffffffffffffffffffffff16021790555061058e806100606000396000f3fe60806040526004361061002d5760003560e01c8063205c2878146100365780638da5cb5b1461005f57610034565b3661003457005b005b34801561004257600080fd5b5061005d60048036038101906100589190610317565b61008a565b005b34801561006b57600080fd5b5061007461025a565b6040516100819190610378565b60405180910390f35b60008054906101000a900473ffffffffffffffffffffffffffffffffffffffff1673ffffffffffffffffffffffffffffffffffffffff163373ffffffffffffffffffffffffffffffffffffffff1614610118576040517f08c379a000000000000000000000000000000000000000000000000000000000815260040161010f906103f0565b60405180910390fd5b8047101561015b576040517f08c379a00000000000000000000000000000000000000000000000000000000081526004016101529061045c565b60405180910390fd5b60008273ffffffffffffffffffffffffffffffffffffffff1682604051610181906104ad565b60006040518083038185875af1925050503d80600081146101be576040519150601f19603f3d011682016040523d82523d6000602084013e6101c3565b606091505b5050905080610207576040517f08c379a00000000000000000000000000000000000000000000000000000000081526004016101fe9061050e565b60405180910390fd5b8273ffffffffffffffffffffffffffffffffffffffff167f7fcf532c15f0a6db0bd6d0e038bea71d30d808c7d98cb3bf7268a95bf5081b658360405161024d919061053d565b60405180910390a2505050565b60008054906101000a900473ffffffffffffffffffffffffffffffffffffffff1681565b600080fd5b600073ffffffffffffffffffffffffffffffffffffffff82169050919050565b60006102ae82610283565b9050919050565b6102be816102a3565b81146102c957600080fd5b50565b6000813590506102db816102b5565b92915050565b6000819050919050565b6102f4816102e1565b81146102ff57600080fd5b50565b600081359050610311816102eb565b92915050565b6000806040838503121561032e5761032d61027e565b5b600061033c858286016102cc565b925050602061034d85828601610302565b9150509250929050565b600061036282610283565b9050919050565b61037281610357565b82525050565b600060208201905061038d6000830184610369565b92915050565b600082825260208201905092915050565b7f4e6f74206f776e65720000000000000000000000000000000000000000000000600082015250565b60006103da600983610393565b91506103e5826103a4565b602082019050919050565b60006020820190508181036000830152610409816103cd565b9050919050565b7f496e73756666696369656e742066756e64730000000000000000000000000000600082015250565b6000610446601283610393565b915061045182610410565b602082019050919050565b6000602082019050818103600083015261047581610439565b9050919050565b600081905092915050565b50565b600061049760008361047c565b91506104a282610487565b600082019050919050565b60006104b88261048a565b9150819050919050565b7f4661696c656420746f2073656e64204574686572000000000000000000000000600082015250565b60006104f8601483610393565b9150610503826104c2565b602082019050919050565b60006020820190508181036000830152610527816104eb565b9050919050565b610537816102e1565b82525050565b6000602082019050610552600083018461052e565b9291505056fea2646970667358221220288e5375ea29e3bf7d2662ac97667e0e5ecc946112db62933c3db01fa6ffae3c64736f6c63430008140033",
  "linkReferences": {},
  "deployedLinkReferences": {}
}